{"abi":[{"type":"fallback","stateMutability":"payable"},{"type":"receive","stateMutability":"payable"},{"type":"function","name":"deposit","inputs":[{"name":"reservationId","type":"string","internalType":"string"},{"name":"business","type":"address","internalType":"address"}],"outputs":[],"stateMutability":"payable"},{"type":"function","name":"getReservation","inputs":[{"name":"reservationId","type":"string","internalType":"string"}],"outputs":[{"name":"","type":"string","internalType":"string"},{"name":"","type":"address","internalType":"address"},{"name":"","type":"address","internalType":"address"},{"name":"","type":"uint256","internalType":"uint256"},{"name":"","type":"uint256","internalType":"uint256"},{"name":"","type":"bool","internalType":"bool"},{"name":"","type":"uint8","internalType":"enum PabandiEscrow.Status"}],"stateMutability":"view"},{"type":"function","name":"openDispute","inputs":[{"name":"reservationId","type":"string","internalType":"string"}],"outputs":[],"stateMutability":"nonpayable"},{"type":"function","name":"refundToCustomer","inputs":[{"name":"reservationId","type":"string","internalType":"string"}],"outputs":[],"stateMutability":"nonpayable"},{"type":"function","name":"releaseToBusiness","inputs":[{"name":"reservationId","type":"string","internalType":"string"}],"outputs":[],"stateMutability":"nonpayable"},{"type":"function","name":"reservations","inputs":[{"name":"","type":"string","internalType":"string"}],"outputs":[{"name":"reservationId","type":"string","internalType":"string"},{"name":"customer","type":"address","internalType":"address"},{"name":"business","type":"address","internalType":"address"},{"name":"amount","type":"uint256","internalType":"uint256"},{"name":"createdAt","type":"uint256","internalType":"uint256"},{"name":"deadline","type":"uint256","internalType":"uint256"},{"name":"isResolved","type":"bool","internalType":"bool"},{"name":"status","type":"uint8","internalType":"enum PabandiEscrow.Status"}],"stateMutability":"view"},{"type":"event","name":"DepositCreated","inputs":[{"name":"reservationId","type":"string","indexed":true,"internalType":"string"},{"name":"customer","type":"address","indexed":true,"internalType":"address"},{"name":"business","type":"address","indexed":true,"internalType":"address"},{"name":"amount","type":"uint256","indexed":false,"internalType":"uint256"}],"anonymous":false},{"type":"event","name":"DisputeOpened","inputs":[{"name":"reservationId","type":"string","indexed":true,"internalType":"string"},{"name":"challenger","type":"address","indexed":true,"internalType":"address"}],"anonymous":false},{"type":"event","name":"DisputeSettled","inputs":[{"name":"reservationId","type":"string","indexed":true,"internalType":"string"},{"name":"winner","type":"address","indexed":false,"internalType":"address"},{"name":"amount","type":"uint256","indexed":false,"internalType":"uint256"}],"anonymous":false},{"type":"event","name":"RefundToCustomer","inputs":[{"name":"reservationId","type":"string","indexed":true,"internalType":"string"},{"name":"amount","type":"uint256","indexed":false,"internalType":"uint256"}],"anonymous":false},{"type":"event","name":"ReleaseToBusiness","inputs":[{"name":"reservationId","type":"string","indexed":true,"internalType":"string"},{"name":"amount","type":"uint256","indexed":false,"internalType":"uint256"}],"anonymous":false},{"type":"error","name":"AlreadyResolved","inputs":[]},{"type":"error","name":"DeadlineNotReached","inputs":[]},{"type":"error","name":"InsufficientBalance","inputs":[]},{"type":"error","name":"NotPending","inputs":[]},{"type":"error","name":"ReservationNotFound","inputs":[]},{"type":"error","name":"Unauthorized","inputs":[]},{"type":"error","name":"ZeroAddress","inputs":[]},{"type":"error","name":"ZeroAmount","inputs":[]}],"bytecode":{"object":"0x608060405234801561000f575f80fd5b50610dba8061001d5f395ff3fe608060405260043610610055575f3560e01c8063595210ad1461005e57806380bd0fe21461007d5780639be37a97146100b8578063ba9ba357146100cb578063c5c95048146100ea578063e87cd2911461011d57005b3661005c57005b005b348015610069575f80fd5b5061005c61007836600461097c565b61013c565b348015610088575f80fd5b5061009c61009736600461097c565b610261565b6040516100af9796959493929190610a32565b60405180910390f35b61005c6100c6366004610a8c565b61036c565b3480156100d6575f80fd5b5061005c6100e536600461097c565b6104c1565b3480156100f5575f80fd5b50610109610104366004610afe565b6106a2565b6040516100af989796959493929190610ba9565b348015610128575f80fd5b5061005c61013736600461097c565b610788565b5f80838360405161014e929190610c0e565b908152604051908190036020019020600681015490915060ff1615610186576040516336ab81e160e11b815260040160405180910390fd5b60018101546001600160a01b031633148015906101b0575060028101546001600160a01b03163314155b156101cd576040516282b42960e81b815260040160405180910390fd5b5f6006820154610100900460ff1660038111156101ec576101ec6109fe565b1461020a57604051633ee3282d60e11b815260040160405180910390fd5b60068101805461ff001916610300179055604051339061022d9085908590610c0e565b604051908190038120907fd60b49a59bf63cceba33a574eb6a5ad6abff495dfd9a46c7ca2385db57d2d91e905f90a3505050565b60605f805f805f805f808a8a60405161027b929190610c0e565b90815260405190819003602001902060018101546002820154600383015460058401546006850154855495965086956001600160a01b0395861695949094169360ff808316926101009004169087906102d390610c1d565b80601f01602080910402602001604051908101604052809291908181526020018280546102ff90610c1d565b801561034a5780601f106103215761010080835404028352916020019161034a565b820191905f5260205f20905b81548152906001019060200180831161032d57829003601f168201915b5050505050965097509750975097509750975097505092959891949750929550565b6001600160a01b0381166103935760405163d92e233d60e01b815260040160405180910390fd5b345f036103b357604051631f2a200560e01b815260040160405180910390fd5b5f8084846040516103c5929190610c0e565b908152604051908190036020019020600681015490915060ff16156103fd576040516336ab81e160e11b815260040160405180910390fd5b80610409848683610ca3565b50600181018054336001600160a01b0319918216179091556002820180549091166001600160a01b0384161790553460038201554260048201819055610452906202a300610d5f565b600582015560068101805461ff00191690556040516001600160a01b0383169033906104819087908790610c0e565b604051908190038120348252907f82e4470bd79e1c8b3cfb39d570f89a3d6f8d5b7d78e66bc14736606cccd7954c9060200160405180910390a450505050565b81815f82826040516104d4929190610c0e565b90815260405190819003602001902060010154336001600160a01b0390911614610510576040516282b42960e81b815260040160405180910390fd5b5f808585604051610522929190610c0e565b908152604051908190036020019020600681015490915060ff161561055a576040516336ab81e160e11b815260040160405180910390fd5b5f6006820154610100900460ff166003811115610579576105796109fe565b1461059757604051633ee3282d60e11b815260040160405180910390fd5b80600501544210156105bc57604051633376277360e11b815260040160405180910390fd5b60068101805461ffff19166102011790556003810180545f9182905560018301546040519192916001600160a01b039091169083908381818185875af1925050503d805f8114610627576040519150601f19603f3d011682016040523d82523d5f602084013e61062c565b606091505b505090508061064e57604051631e9acf1760e31b815260040160405180910390fd5b868660405161065e929190610c0e565b604051908190038120838252907f16875215805e529d25102f7cf131a154bc86f94acff8978c1e36218de872f7c1906020015b60405180910390a250505050505050565b80516020818301810180515f825292820191909301209152805481906106c790610c1d565b80601f01602080910402602001604051908101604052809291908181526020018280546106f390610c1d565b801561073e5780601f106107155761010080835404028352916020019161073e565b820191905f5260205f20905b81548152906001019060200180831161072157829003601f168201915b5050506001840154600285015460038601546004870154600588015460069098015496976001600160a01b0394851697939094169550909350919060ff8082169161010090041688565b81815f828260405161079b929190610c0e565b90815260405190819003602001902060020154336001600160a01b03909116146107d7576040516282b42960e81b815260040160405180910390fd5b5f8085856040516107e9929190610c0e565b908152604051908190036020019020600681015490915060ff1615610821576040516336ab81e160e11b815260040160405180910390fd5b5f6006820154610100900460ff166003811115610840576108406109fe565b1461085e57604051633ee3282d60e11b815260040160405180910390fd5b60068101805461ffff19166101011790556003810180545f9182905560028301546040519192916001600160a01b039091169083908381818185875af1925050503d805f81146108c9576040519150601f19603f3d011682016040523d82523d5f602084013e6108ce565b606091505b50509050806108f057604051631e9acf1760e31b815260040160405180910390fd5b8686604051610900929190610c0e565b604051908190038120838252907fff740a3b4ebd65284c4a2ce9c2354c908f63b65244bcb97aa6cf49925251d59290602001610691565b5f8083601f840112610947575f80fd5b50813567ffffffffffffffff81111561095e575f80fd5b602083019150836020828501011115610975575f80fd5b9250929050565b5f806020838503121561098d575f80fd5b823567ffffffffffffffff8111156109a3575f80fd5b6109af85828601610937565b90969095509350505050565b5f81518084525f5b818110156109df576020818501810151868301820152016109c3565b505f602082860101526020601f19601f83011685010191505092915050565b634e487b7160e01b5f52602160045260245ffd5b60048110610a2e57634e487b7160e01b5f52602160045260245ffd5b9052565b60e081525f610a4460e083018a6109bb565b6001600160a01b03898116602085015288166040840152606083018790526080830186905284151560a08401529050610a8060c0830184610a12565b98975050505050505050565b5f805f60408486031215610a9e575f80fd5b833567ffffffffffffffff811115610ab4575f80fd5b610ac086828701610937565b90945092505060208401356001600160a01b0381168114610adf575f80fd5b809150509250925092565b634e487b7160e01b5f52604160045260245ffd5b5f60208284031215610b0e575f80fd5b813567ffffffffffffffff80821115610b25575f80fd5b818401915084601f830112610b38575f80fd5b813581811115610b4a57610b4a610aea565b604051601f8201601f19908116603f01168101908382118183101715610b7257610b72610aea565b81604052828152876020848701011115610b8a575f80fd5b826020860160208301375f928101602001929092525095945050505050565b5f610100808352610bbc8184018c6109bb565b6001600160a01b038b811660208601528a166040850152606084018990526080840188905260a0840187905285151560c08501529150610c01905060e0830184610a12565b9998505050505050505050565b818382375f9101908152919050565b600181811c90821680610c3157607f821691505b602082108103610c4f57634e487b7160e01b5f52602260045260245ffd5b50919050565b601f821115610c9e575f81815260208120601f850160051c81016020861015610c7b5750805b601f850160051c820191505b81811015610c9a57828155600101610c87565b5050505b505050565b67ffffffffffffffff831115610cbb57610cbb610aea565b610ccf83610cc98354610c1d565b83610c55565b5f601f841160018114610d00575f8515610ce95750838201355b5f19600387901b1c1916600186901b178355610d58565b5f83815260209020601f19861690835b82811015610d305786850135825560209485019460019092019101610d10565b5086821015610d4c575f1960f88860031b161c19848701351681555b505060018560011b0183555b5050505050565b80820180821115610d7e57634e487b7160e01b5f52601160045260245ffd5b9291505056fea2646970667358221220bbf45feeab92c165ba61b73a12a66672f75bbe329f34c3ef8447ab9ccbdc125f64736f6c63430008140033","linkReferences":{}},"methodIdentifiers":{"deposit(string,address)":"9be37a97","getReservation(string)":"80bd0fe2","openDispute(string)":"595210ad","refundToCustomer(string)":"ba9ba357","releaseToBusiness(string)":"e87cd291","reservations(string)":"c5c95048"},"id":0}